{
  "_format": "hh3-artifact-1",
  "contractName": "EasyFaucet",
  "sourceName": "contracts/EasyFaucet.sol",
  "abi": [
    {
      "inputs": [],
      "stateMutability": "nonpayable",
      "type": "constructor"
    },
    {
      "inputs": [],
      "name": "InvalidInitialization",
      "type": "error"
    },
    {
      "inputs": [],
      "name": "NotInitializing",
      "type": "error"
    },
    {
      "inputs": [
        {
          "internalType": "address",
          "name": "owner",
          "type": "address"
        }
      ],
      "name": "OwnableInvalidOwner",
      "type": "error"
    },
    {
      "inputs": [
        {
          "internalType": "address",
          "name": "account",
          "type": "address"
        }
      ],
      "name": "OwnableUnauthorizedAccount",
      "type": "error"
    },
    {
      "anonymous": false,
      "inputs": [
        {
          "indexed": false,
          "internalType": "uint64",
          "name": "version",
          "type": "uint64"
        }
      ],
      "name": "Initialized",
      "type": "event"
    },
    {
      "anonymous": false,
      "inputs": [
        {
          "indexed": true,
          "internalType": "address",
          "name": "previousOwner",
          "type": "address"
        },
        {
          "indexed": true,
          "internalType": "address",
          "name": "newOwner",
          "type": "address"
        }
      ],
      "name": "OwnershipTransferred",
      "type": "event"
    },
    {
      "inputs": [
        {
          "internalType": "address",
          "name": "token",
          "type": "address"
        }
      ],
      "name": "addToken",
      "outputs": [],
      "stateMutability": "nonpayable",
      "type": "function"
    },
    {
      "inputs": [
        {
          "internalType": "address",
          "name": "token",
          "type": "address"
        },
        {
          "internalType": "uint256",
          "name": "amount",
          "type": "uint256"
        },
        {
          "internalType": "address",
          "name": "recipient",
          "type": "address"
        }
      ],
      "name": "claim",
      "outputs": [],
      "stateMutability": "nonpayable",
      "type": "function"
    },
    {
      "inputs": [
        {
          "internalType": "address",
          "name": "initialOwner",
          "type": "address"
        },
        {
          "internalType": "string",
          "name": "name_",
          "type": "string"
        },
        {
          "internalType": "address[]",
          "name": "tokens_",
          "type": "address[]"
        }
      ],
      "name": "initialize",
      "outputs": [],
      "stateMutability": "nonpayable",
      "type": "function"
    },
    {
      "inputs": [],
      "name": "name",
      "outputs": [
        {
          "internalType": "string",
          "name": "",
          "type": "string"
        }
      ],
      "stateMutability": "view",
      "type": "function"
    },
    {
      "inputs": [],
      "name": "owner",
      "outputs": [
        {
          "internalType": "address",
          "name": "",
          "type": "address"
        }
      ],
      "stateMutability": "view",
      "type": "function"
    },
    {
      "inputs": [],
      "name": "renounceOwnership",
      "outputs": [],
      "stateMutability": "nonpayable",
      "type": "function"
    },
    {
      "inputs": [],
      "name": "tokenInfos",
      "outputs": [
        {
          "internalType": "address[]",
          "name": "",
          "type": "address[]"
        },
        {
          "internalType": "string[]",
          "name": "",
          "type": "string[]"
        },
        {
          "internalType": "uint8[]",
          "name": "",
          "type": "uint8[]"
        },
        {
          "internalType": "uint256[]",
          "name": "",
          "type": "uint256[]"
        }
      ],
      "stateMutability": "view",
      "type": "function"
    },
    {
      "inputs": [
        {
          "internalType": "address",
          "name": "newOwner",
          "type": "address"
        }
      ],
      "name": "transferOwnership",
      "outputs": [],
      "stateMutability": "nonpayable",
      "type": "function"
    }
  ],
  "bytecode": "0x6080604052348015600e575f5ffd5b5060156019565b60c9565b7ff0c57e16840df040f15088dc2f81fe391c3923bec73e23a9662efc9c229c6a00805468010000000000000000900460ff161560685760405163f92ee8a960e01b815260040160405180910390fd5b80546001600160401b039081161460c65780546001600160401b0319166001600160401b0390811782556040519081527fc7f505b2f371ae2175ee4913f4499e1f2633a7b5936321eed1cdaeb6115181d29060200160405180910390a15b50565b610efa806100d65f395ff3fe608060405234801561000f575f5ffd5b5060043610610085575f3560e01c80639838f851116100585780639838f851146100fe5780639e96a26014610116578063d48bfca714610129578063f2fde38b1461013c575f5ffd5b806306fdde03146100895780633a105cfb146100a7578063715018a6146100bc5780638da5cb5b146100c4575b5f5ffd5b61009161014f565b60405161009e9190610936565b60405180910390f35b6100ba6100b5366004610a5d565b6101da565b005b6100ba61035a565b7f9016d09d72d40fdae2fd8ceac6b6234c7706214fd39c1cd1e609a0528c199300546040516001600160a01b03909116815260200161009e565b61010661036d565b60405161009e9493929190610b7e565b6100ba610124366004610c54565b6106cb565b6100ba610137366004610c8d565b610741565b6100ba61014a366004610c8d565b610799565b5f805461015b90610ca6565b80601f016020809104026020016040519081016040528092919081815260200182805461018790610ca6565b80156101d25780601f106101a9576101008083540402835291602001916101d2565b820191905f5260205f20905b8154815290600101906020018083116101b557829003601f168201915b505050505081565b7ff0c57e16840df040f15088dc2f81fe391c3923bec73e23a9662efc9c229c6a008054600160401b810460ff16159067ffffffffffffffff165f8115801561021f5750825b90505f8267ffffffffffffffff16600114801561023b5750303b155b905081158015610249575080155b156102675760405163f92ee8a960e01b815260040160405180910390fd5b845467ffffffffffffffff19166001178555831561029157845460ff60401b1916600160401b1785555b61029a886107db565b5f6102a58882610d2a565b505f5b86518110156103095760018782815181106102c5576102c5610de5565b6020908102919091018101518254600180820185555f9485529290932090920180546001600160a01b0319166001600160a01b0390931692909217909155016102a8565b50831561035057845460ff60401b19168555604051600181527fc7f505b2f371ae2175ee4913f4499e1f2633a7b5936321eed1cdaeb6115181d29060200160405180910390a15b5050505050505050565b6103626107ec565b61036b5f610847565b565b6060806060805f60018054905067ffffffffffffffff8111156103925761039261096a565b6040519080825280602002602001820160405280156103c557816020015b60608152602001906001900390816103b05790505b506001549091505f9067ffffffffffffffff8111156103e6576103e661096a565b60405190808252806020026020018201604052801561040f578160200160208202803683370190505b506001549091505f9067ffffffffffffffff8111156104305761043061096a565b604051908082528060200260200182016040528015610459578160200160208202803683370190505b5090505f5b60015481101561065a576001818154811061047b5761047b610de5565b5f918252602082200154604080516395d89b4160e01b815290516001600160a01b03909216926395d89b41926004808401938290030181865afa1580156104c4573d5f5f3e3d5ffd5b505050506040513d5f823e601f3d908101601f191682016040526104eb9190810190610df9565b8482815181106104fd576104fd610de5565b60200260200101819052506001818154811061051b5761051b610de5565b5f91825260209182902001546040805163313ce56760e01b815290516001600160a01b039092169263313ce567926004808401938290030181865afa158015610566573d5f5f3e3d5ffd5b505050506040513d601f19601f8201168201806040525081019061058a9190610e6e565b83828151811061059c5761059c610de5565b602002602001019060ff16908160ff1681525050600181815481106105c3576105c3610de5565b5f918252602090912001546040516370a0823160e01b81523060048201526001600160a01b03909116906370a0823190602401602060405180830381865afa158015610611573d5f5f3e3d5ffd5b505050506040513d601f19601f820116820180604052508101906106359190610e8e565b82828151811061064757610647610de5565b602090810291909101015260010161045e565b506001838383838054806020026020016040519081016040528092919081815260200182805480156106b357602002820191905f5260205f20905b81546001600160a01b03168152600190910190602001808311610695575b50505050509350965096509650965050505090919293565b60405163a9059cbb60e01b81526001600160a01b0382811660048301526024820184905284169063a9059cbb906044016020604051808303815f875af1158015610717573d5f5f3e3d5ffd5b505050506040513d601f19601f8201168201806040525081019061073b9190610ea5565b50505050565b6107496107ec565b6001805480820182555f919091527fb10e2d527612073b26eecdfd717e6a320cf44b4afac2b0732d9fcbe2b7fa0cf60180546001600160a01b0319166001600160a01b0392909216919091179055565b6107a16107ec565b6001600160a01b0381166107cf57604051631e4fbdf760e01b81525f60048201526024015b60405180910390fd5b6107d881610847565b50565b6107e36108b7565b6107d881610900565b3361081e7f9016d09d72d40fdae2fd8ceac6b6234c7706214fd39c1cd1e609a0528c199300546001600160a01b031690565b6001600160a01b03161461036b5760405163118cdaa760e01b81523360048201526024016107c6565b7f9016d09d72d40fdae2fd8ceac6b6234c7706214fd39c1cd1e609a0528c19930080546001600160a01b031981166001600160a01b03848116918217845560405192169182907f8be0079c531659141344cd1fd0a4f28419497f9722a3daafe3b4186f6b6457e0905f90a3505050565b7ff0c57e16840df040f15088dc2f81fe391c3923bec73e23a9662efc9c229c6a0054600160401b900460ff1661036b57604051631afcd79f60e31b815260040160405180910390fd5b6107a16108b7565b5f81518084528060208401602086015e5f602082860101526020601f19601f83011685010191505092915050565b602081525f6109486020830184610908565b9392505050565b80356001600160a01b0381168114610965575f5ffd5b919050565b634e487b7160e01b5f52604160045260245ffd5b604051601f8201601f1916810167ffffffffffffffff811182821017156109a7576109a761096a565b604052919050565b5f67ffffffffffffffff8211156109c8576109c861096a565b50601f01601f191660200190565b5f82601f8301126109e5575f5ffd5b813567ffffffffffffffff8111156109ff576109ff61096a565b8060051b610a0f6020820161097e565b91825260208185018101929081019086841115610a2a575f5ffd5b6020860192505b83831015610a5357610a428361094f565b825260209283019290910190610a31565b9695505050505050565b5f5f5f60608486031215610a6f575f5ffd5b610a788461094f565b9250602084013567ffffffffffffffff811115610a93575f5ffd5b8401601f81018613610aa3575f5ffd5b8035610ab6610ab1826109af565b61097e565b818152876020838501011115610aca575f5ffd5b816020840160208301375f60208383010152809450505050604084013567ffffffffffffffff811115610afb575f5ffd5b610b07868287016109d6565b9150509250925092565b5f8151808452602084019350602083015f5b82811015610b4457815160ff16865260209586019590910190600101610b23565b5093949350505050565b5f8151808452602084019350602083015f5b82811015610b44578151865260209586019590910190600101610b60565b608080825285519082018190525f90602087019060a0840190835b81811015610bc05783516001600160a01b0316835260209384019390920191600101610b99565b505083810360208501528091505f875180835260208301935060208160051b84010160208a015f5b83811015610c1a57601f19868403018752610c04838351610908565b6020978801979093509190910190600101610be8565b50508092508681036040880152610c31818a610b11565b9450505050508281036060840152610c498185610b4e565b979650505050505050565b5f5f5f60608486031215610c66575f5ffd5b610c6f8461094f565b925060208401359150610c846040850161094f565b90509250925092565b5f60208284031215610c9d575f5ffd5b6109488261094f565b600181811c90821680610cba57607f821691505b602082108103610cd857634e487b7160e01b5f52602260045260245ffd5b50919050565b601f821115610d2557805f5260205f20601f840160051c81016020851015610d035750805b601f840160051c820191505b81811015610d22575f8155600101610d0f565b50505b505050565b815167ffffffffffffffff811115610d4457610d4461096a565b610d5881610d528454610ca6565b84610cde565b6020601f821160018114610d8a575f8315610d735750848201515b5f19600385901b1c1916600184901b178455610d22565b5f84815260208120601f198516915b82811015610db95787850151825560209485019460019092019101610d99565b5084821015610dd657868401515f19600387901b60f8161c191681555b50505050600190811b01905550565b634e487b7160e01b5f52603260045260245ffd5b5f60208284031215610e09575f5ffd5b815167ffffffffffffffff811115610e1f575f5ffd5b8201601f81018413610e2f575f5ffd5b8051610e3d610ab1826109af565b818152856020838501011115610e51575f5ffd5b8160208401602083015e5f91810160200191909152949350505050565b5f60208284031215610e7e575f5ffd5b815160ff81168114610948575f5ffd5b5f60208284031215610e9e575f5ffd5b5051919050565b5f60208284031215610eb5575f5ffd5b81518015158114610948575f5ffdfea2646970667358221220bfde8743941d7e8176ab96d48f1e449bd944aca935dcb27a261b284fc10a253e64736f6c634300081c0033",
  "linkReferences": {},
  "deployedLinkReferences": {},
  "immutableReferences": {},
  "inputSourceName": "project/contracts/EasyFaucet.sol",
  "buildInfoId": "solc-0_8_28-5a07f8fe783458994d28f09ae9b835b9c34fc226"
}