{
  "_format": "hh3-artifact-1",
  "contractName": "EasyFaucetFactory",
  "sourceName": "contracts/EasyFaucetFactory.sol",
  "abi": [
    {
      "inputs": [],
      "stateMutability": "nonpayable",
      "type": "constructor"
    },
    {
      "inputs": [
        {
          "internalType": "address",
          "name": "target",
          "type": "address"
        }
      ],
      "name": "AddressEmptyCode",
      "type": "error"
    },
    {
      "inputs": [
        {
          "internalType": "address",
          "name": "implementation",
          "type": "address"
        }
      ],
      "name": "ERC1967InvalidImplementation",
      "type": "error"
    },
    {
      "inputs": [],
      "name": "ERC1967NonPayable",
      "type": "error"
    },
    {
      "inputs": [],
      "name": "FailedCall",
      "type": "error"
    },
    {
      "inputs": [],
      "name": "InvalidInitialization",
      "type": "error"
    },
    {
      "inputs": [],
      "name": "NotInitializing",
      "type": "error"
    },
    {
      "inputs": [
        {
          "internalType": "address",
          "name": "owner",
          "type": "address"
        }
      ],
      "name": "OwnableInvalidOwner",
      "type": "error"
    },
    {
      "inputs": [
        {
          "internalType": "address",
          "name": "account",
          "type": "address"
        }
      ],
      "name": "OwnableUnauthorizedAccount",
      "type": "error"
    },
    {
      "inputs": [],
      "name": "UUPSUnauthorizedCallContext",
      "type": "error"
    },
    {
      "inputs": [
        {
          "internalType": "bytes32",
          "name": "slot",
          "type": "bytes32"
        }
      ],
      "name": "UUPSUnsupportedProxiableUUID",
      "type": "error"
    },
    {
      "anonymous": false,
      "inputs": [
        {
          "indexed": false,
          "internalType": "uint64",
          "name": "version",
          "type": "uint64"
        }
      ],
      "name": "Initialized",
      "type": "event"
    },
    {
      "anonymous": false,
      "inputs": [
        {
          "indexed": true,
          "internalType": "address",
          "name": "owner",
          "type": "address"
        },
        {
          "indexed": false,
          "internalType": "string",
          "name": "name",
          "type": "string"
        },
        {
          "indexed": false,
          "internalType": "address",
          "name": "faucet",
          "type": "address"
        }
      ],
      "name": "NewFaucet",
      "type": "event"
    },
    {
      "anonymous": false,
      "inputs": [
        {
          "indexed": true,
          "internalType": "address",
          "name": "previousOwner",
          "type": "address"
        },
        {
          "indexed": true,
          "internalType": "address",
          "name": "newOwner",
          "type": "address"
        }
      ],
      "name": "OwnershipTransferred",
      "type": "event"
    },
    {
      "anonymous": false,
      "inputs": [
        {
          "indexed": true,
          "internalType": "address",
          "name": "implementation",
          "type": "address"
        }
      ],
      "name": "Upgraded",
      "type": "event"
    },
    {
      "inputs": [],
      "name": "UPGRADE_INTERFACE_VERSION",
      "outputs": [
        {
          "internalType": "string",
          "name": "",
          "type": "string"
        }
      ],
      "stateMutability": "view",
      "type": "function"
    },
    {
      "inputs": [
        {
          "internalType": "address",
          "name": "initialOwner",
          "type": "address"
        }
      ],
      "name": "initialize",
      "outputs": [],
      "stateMutability": "nonpayable",
      "type": "function"
    },
    {
      "inputs": [
        {
          "internalType": "address",
          "name": "beacon",
          "type": "address"
        },
        {
          "internalType": "address",
          "name": "initialOwner",
          "type": "address"
        },
        {
          "internalType": "string",
          "name": "name",
          "type": "string"
        },
        {
          "internalType": "address[]",
          "name": "tokens",
          "type": "address[]"
        }
      ],
      "name": "newFaucet",
      "outputs": [],
      "stateMutability": "nonpayable",
      "type": "function"
    },
    {
      "inputs": [],
      "name": "owner",
      "outputs": [
        {
          "internalType": "address",
          "name": "",
          "type": "address"
        }
      ],
      "stateMutability": "view",
      "type": "function"
    },
    {
      "inputs": [],
      "name": "proxiableUUID",
      "outputs": [
        {
          "internalType": "bytes32",
          "name": "",
          "type": "bytes32"
        }
      ],
      "stateMutability": "view",
      "type": "function"
    },
    {
      "inputs": [],
      "name": "renounceOwnership",
      "outputs": [],
      "stateMutability": "nonpayable",
      "type": "function"
    },
    {
      "inputs": [
        {
          "internalType": "address",
          "name": "newOwner",
          "type": "address"
        }
      ],
      "name": "transferOwnership",
      "outputs": [],
      "stateMutability": "nonpayable",
      "type": "function"
    },
    {
      "inputs": [
        {
          "internalType": "address",
          "name": "newImplementation",
          "type": "address"
        },
        {
          "internalType": "bytes",
          "name": "data",
          "type": "bytes"
        }
      ],
      "name": "upgradeToAndCall",
      "outputs": [],
      "stateMutability": "payable",
      "type": "function"
    }
  ],
  "bytecode": "0x60a060405230608052348015610013575f5ffd5b5061001c610021565b6100d3565b7ff0c57e16840df040f15088dc2f81fe391c3923bec73e23a9662efc9c229c6a00805468010000000000000000900460ff16156100715760405163f92ee8a960e01b815260040160405180910390fd5b80546001600160401b03908116146100d05780546001600160401b0319166001600160401b0390811782556040519081527fc7f505b2f371ae2175ee4913f4499e1f2633a7b5936321eed1cdaeb6115181d29060200160405180910390a15b50565b6080516112176100f95f395f81816104220152818161044b015261058f01526112175ff3fe608060405260043610610079575f3560e01c8063ad3cb1cc1161004c578063ad3cb1cc14610113578063c4d66de814610150578063d5e9f9461461016f578063f2fde38b1461018e575f5ffd5b80634f1ef2861461007d57806352d1902d14610092578063715018a6146100b95780638da5cb5b146100cd575b5f5ffd5b61009061008b366004610998565b6101ad565b005b34801561009d575f5ffd5b506100a66101cc565b6040519081526020015b60405180910390f35b3480156100c4575f5ffd5b506100906101e7565b3480156100d8575f5ffd5b507f9016d09d72d40fdae2fd8ceac6b6234c7706214fd39c1cd1e609a0528c199300546040516001600160a01b0390911681526020016100b0565b34801561011e575f5ffd5b50610143604051806040016040528060058152602001640352e302e360dc1b81525081565b6040516100b09190610a24565b34801561015b575f5ffd5b5061009061016a366004610a36565b6101fa565b34801561017a575f5ffd5b50610090610189366004610a4f565b610310565b348015610199575f5ffd5b506100906101a8366004610a36565b6103d5565b6101b5610417565b6101be826104bb565b6101c882826104c3565b5050565b5f6101d5610584565b505f5160206111c25f395f51905f5290565b6101ef6105cd565b6101f85f610628565b565b7ff0c57e16840df040f15088dc2f81fe391c3923bec73e23a9662efc9c229c6a008054600160401b810460ff16159067ffffffffffffffff165f8115801561023f5750825b90505f8267ffffffffffffffff16600114801561025b5750303b155b905081158015610269575080155b156102875760405163f92ee8a960e01b815260040160405180910390fd5b845467ffffffffffffffff1916600117855583156102b157845460ff60401b1916600160401b1785555b6102ba86610698565b6102c26106a9565b831561030857845460ff60401b19168555604051600181527fc7f505b2f371ae2175ee4913f4499e1f2633a7b5936321eed1cdaeb6115181d29060200160405180910390a15b505050505050565b5f83838360405160240161032693929190610b5c565b60408051601f198184030181529181526020820180516001600160e01b0316633a105cfb60e01b179052519091505f9086908390610363906108d2565b61036e929190610bca565b604051809103905ff080158015610387573d5f5f3e3d5ffd5b509050846001600160a01b03167fd9ce6fab86b7203f2c1610c600ec586b506c1de69b65bf47a7b60cc4e750582785836040516103c5929190610bf5565b60405180910390a2505050505050565b6103dd6105cd565b6001600160a01b03811661040b57604051631e4fbdf760e01b81525f60048201526024015b60405180910390fd5b61041481610628565b50565b306001600160a01b037f000000000000000000000000000000000000000000000000000000000000000016148061049d57507f00000000000000000000000000000000000000000000000000000000000000006001600160a01b03166104915f5160206111c25f395f51905f52546001600160a01b031690565b6001600160a01b031614155b156101f85760405163703e46dd60e11b815260040160405180910390fd5b6104146105cd565b816001600160a01b03166352d1902d6040518163ffffffff1660e01b8152600401602060405180830381865afa92505050801561051d575060408051601f3d908101601f1916820190925261051a91810190610c1e565b60015b61054557604051634c9c8ce360e01b81526001600160a01b0383166004820152602401610402565b5f5160206111c25f395f51905f52811461057557604051632a87526960e21b815260048101829052602401610402565b61057f83836106b1565b505050565b306001600160a01b037f000000000000000000000000000000000000000000000000000000000000000016146101f85760405163703e46dd60e11b815260040160405180910390fd5b336105ff7f9016d09d72d40fdae2fd8ceac6b6234c7706214fd39c1cd1e609a0528c199300546001600160a01b031690565b6001600160a01b0316146101f85760405163118cdaa760e01b8152336004820152602401610402565b7f9016d09d72d40fdae2fd8ceac6b6234c7706214fd39c1cd1e609a0528c19930080546001600160a01b031981166001600160a01b03848116918217845560405192169182907f8be0079c531659141344cd1fd0a4f28419497f9722a3daafe3b4186f6b6457e0905f90a3505050565b6106a0610706565b6104148161074f565b6101f8610706565b6106ba82610757565b6040516001600160a01b038316907fbc7cd75a20ee27fd9adebab32041f755214dbc6bffa90cc0225b39da2e5c2d3b905f90a28051156106fe5761057f82826107ba565b6101c861082c565b7ff0c57e16840df040f15088dc2f81fe391c3923bec73e23a9662efc9c229c6a0054600160401b900460ff166101f857604051631afcd79f60e31b815260040160405180910390fd5b6103dd610706565b806001600160a01b03163b5f0361078c57604051634c9c8ce360e01b81526001600160a01b0382166004820152602401610402565b5f5160206111c25f395f51905f5280546001600160a01b0319166001600160a01b0392909216919091179055565b60605f5f846001600160a01b0316846040516107d69190610c35565b5f60405180830381855af49150503d805f811461080e576040519150601f19603f3d011682016040523d82523d5f602084013e610813565b606091505b509150915061082385838361084b565b95945050505050565b34156101f85760405163b398979f60e01b815260040160405180910390fd5b6060826108605761085b826108aa565b6108a3565b815115801561087757506001600160a01b0384163b155b156108a057604051639996b31560e01b81526001600160a01b0385166004820152602401610402565b50805b9392505050565b8051156108b957805160208201fd5b60405163d6bda27560e01b815260040160405180910390fd5b61057680610c4c83390190565b80356001600160a01b03811681146108f5575f5ffd5b919050565b634e487b7160e01b5f52604160045260245ffd5b604051601f8201601f1916810167ffffffffffffffff81118282101715610937576109376108fa565b604052919050565b5f5f67ffffffffffffffff841115610959576109596108fa565b50601f8301601f191660200161096e8161090e565b915050828152838383011115610982575f5ffd5b828260208301375f602084830101529392505050565b5f5f604083850312156109a9575f5ffd5b6109b2836108df565b9150602083013567ffffffffffffffff8111156109cd575f5ffd5b8301601f810185136109dd575f5ffd5b6109ec8582356020840161093f565b9150509250929050565b5f81518084528060208401602086015e5f602082860101526020601f19601f83011685010191505092915050565b602081525f6108a360208301846109f6565b5f60208284031215610a46575f5ffd5b6108a3826108df565b5f5f5f5f60808587031215610a62575f5ffd5b610a6b856108df565b9350610a79602086016108df565b9250604085013567ffffffffffffffff811115610a94575f5ffd5b8501601f81018713610aa4575f5ffd5b610ab38782356020840161093f565b925050606085013567ffffffffffffffff811115610acf575f5ffd5b8501601f81018713610adf575f5ffd5b803567ffffffffffffffff811115610af957610af96108fa565b8060051b610b096020820161090e565b9182526020818401810192908101908a841115610b24575f5ffd5b6020850194505b83851015610b4d57610b3c856108df565b825260209485019490910190610b2b565b979a9699509497505050505050565b6001600160a01b03841681526060602082018190525f90610b7f908301856109f6565b8281036040840152835180825260208086019201905f5b81811015610bbd5783516001600160a01b0316835260209384019390920191600101610b96565b5090979650505050505050565b6001600160a01b03831681526040602082018190525f90610bed908301846109f6565b949350505050565b604081525f610c0760408301856109f6565b905060018060a01b03831660208301529392505050565b5f60208284031215610c2e575f5ffd5b5051919050565b5f82518060208501845e5f92019182525091905056fe60a060405260405161057638038061057683398101604081905261002291610353565b61002c828261003e565b506001600160a01b0316608052610444565b610047826100fb565b6040516001600160a01b038316907f1cf3b03a6cf19fa2baba4df148e9dcabedea7f8a5c07840e207e5c089be95d3e905f90a28051156100ef576100ea826001600160a01b0316635c60da1b6040518163ffffffff1660e01b8152600401602060405180830381865afa1580156100c0573d5f5f3e3d5ffd5b505050506040513d601f19601f820116820180604052508101906100e49190610415565b82610209565b505050565b6100f761027c565b5050565b806001600160a01b03163b5f0361013557604051631933b43b60e21b81526001600160a01b03821660048201526024015b60405180910390fd5b807fa3f0ad74e5423aebfd80d3ef4346578335a9a72aeaee59ff6cb3582b35133d5080546001600160a01b0319166001600160a01b0392831617905560408051635c60da1b60e01b815290515f92841691635c60da1b9160048083019260209291908290030181865afa1580156101ae573d5f5f3e3d5ffd5b505050506040513d601f19601f820116820180604052508101906101d29190610415565b9050806001600160a01b03163b5f036100f757604051634c9c8ce360e01b81526001600160a01b038216600482015260240161012c565b60605f5f846001600160a01b031684604051610225919061042e565b5f60405180830381855af49150503d805f811461025d576040519150601f19603f3d011682016040523d82523d5f602084013e610262565b606091505b50909250905061027385838361029d565b95945050505050565b341561029b5760405163b398979f60e01b815260040160405180910390fd5b565b6060826102b2576102ad826102fc565b6102f5565b81511580156102c957506001600160a01b0384163b155b156102f257604051639996b31560e01b81526001600160a01b038516600482015260240161012c565b50805b9392505050565b80511561030b57805160208201fd5b60405163d6bda27560e01b815260040160405180910390fd5b80516001600160a01b038116811461033a575f5ffd5b919050565b634e487b7160e01b5f52604160045260245ffd5b5f5f60408385031215610364575f5ffd5b61036d83610324565b60208401519092506001600160401b03811115610388575f5ffd5b8301601f81018513610398575f5ffd5b80516001600160401b038111156103b1576103b161033f565b604051601f8201601f19908116603f011681016001600160401b03811182821017156103df576103df61033f565b6040528181528282016020018710156103f6575f5ffd5b8160208401602083015e5f602083830101528093505050509250929050565b5f60208284031215610425575f5ffd5b6102f582610324565b5f82518060208501845e5f920191825250919050565b60805161011b61045b5f395f601d015261011b5ff3fe6080604052600a600c565b005b60186014601a565b609d565b565b5f7f00000000000000000000000000000000000000000000000000000000000000006001600160a01b0316635c60da1b6040518163ffffffff1660e01b8152600401602060405180830381865afa1580156076573d5f5f3e3d5ffd5b505050506040513d601f19601f820116820180604052508101906098919060ba565b905090565b365f5f375f5f365f845af43d5f5f3e80801560b6573d5ff35b3d5ffd5b5f6020828403121560c9575f5ffd5b81516001600160a01b038116811460de575f5ffd5b939250505056fea2646970667358221220c6d6ef537c8571798336619f5c83af516530d894a4a5fd947491bf44fdc809e264736f6c634300081c0033360894a13ba1a3210667c828492db98dca3e2076cc3735a920a3ca505d382bbca264697066735822122087cb3d59a4858d946d8022650e056f3a630dbd8b212211b33d4549e28818448864736f6c634300081c0033",
  "linkReferences": {},
  "deployedLinkReferences": {},
  "immutableReferences": {
    "482": [
      {
        "length": 32,
        "start": 1058
      },
      {
        "length": 32,
        "start": 1099
      },
      {
        "length": 32,
        "start": 1423
      }
    ]
  },
  "inputSourceName": "project/contracts/EasyFaucetFactory.sol",
  "buildInfoId": "solc-0_8_28-936dabd13fb0da329af3d69b994794387387db76"
}